:020000040800F2
:10000000200500209D010008271B00083B1A00085E
:10001000251B0008B10200086D2600080000000042
:10002000000000000000000000000000FD1D0008AE
:10003000B302000800000000491B0008FF1D000873
:10004000B7010008B7010008B7010008B7010008B0
:10005000B7010008B7010008B7010008B7010008A0
:10006000B7010008B7010008B7010008B701000890
:10007000B7010008B7010008B7010008B701000880
:10008000B7010008B7010008B7010008B701000870
:10009000B7010008B7010008B7010008B701000860
:1000A000B7010008B7010008B7010008A91E000841
:1000B000B7010008B7010008B7010008B701000840
:1000C000B7010008B7010008B7010008B701000830
:1000D000B7010008B7010008B7010008B701000820
:1000E000B7010008B7010008B7010008B701000810
:1000F000B7010008B7010008B7010008B701000800
:10010000B7010008B7010008B7010008B7010008EF
:1001100039210008B7010008B51E0008B701000822
:10012000B7010008B7010008B7010008B7010008CF
:10013000B7010008B7010008B7010008B7010008BF
:10014000B7010008B7010008B7010008B7010008AF
:10015000B7010008B7010008B7010008B70100089F
:10016000B7010008B7010008B7010008B70100088F
:10017000B7010008B7010008B7010008000000003F
:10018000B7010008B7010008DFF80CD000F07EF8D6
:10019000004800478D2600082005002006488047BB
:1001A00006480047FEE7FEE7FEE7FEE7FEE7FEE75C
:1001B000FEE7FEE7FEE7FEE7651E0008890100088E
:1001C0002DE9F05F0546002092469B46884606468C
:1001D000814640241BE0284641464746224600F01F
:1001E00044F853465A46C01A914110D31146184656
:1001F000224600F02BF82D1A67EB01084F462246E5
:100200000120002100F022F817EB00094E41201ECA
:10021000A4F10104DFDC484631462A46434600F09B
:1002200000B830BCBDE8C09FD2B201E000F8012B9D
:10023000491EFBD270470022F6E710B513460A4666
:1002400004461946FFF7F0FF204610BD202A04DBC4
:10025000203A00FA02F1002070479140C2F12003D9
:1002600020FA03F3194390407047202A04DB203A18
:1002700021FA02F00021704721FA02F3D040C2F1C6
:10028000200291400843194670470000064C074D74
:1002900006E0E06840F0010394E807009847103456
:1002A000AC42F6D3FFF774FFA8270008C827000860
:1002B000FEE7704710B590F825100024022903D0FE
:1002C0000421C16301241AE001680A6822F00E02C9
:1002D0000A6001680A6822F001020A6090F844107E
:1002E000036C01F01C02012101FA02F25A6080F84D
:1002F0002510002180F82410816B01B18847204629
:1003000010BD00002DE9F84FDFF898B100234FF041
:10031000010C4FF0030A4FF00F090BF1040EB9E086
:100320000CFA03F4224070D04D68022D01D0122D3A
:100330000ED1DD0800EB8508D8F820505E07F70ED7
:1003400009FA07F6B5430E69BE402E43C8F820608F
:1003500007685E0091F804800AFA06F508F00308C1
:10036000AF4308FA06F848EA0708C0F800804F686B
:10037000012F05D0022F03D0112F01D0122F13D13E
:10038000D0F80880CF6828EA0508B74047EA080790
:100390008760D0F804800F7928EA0408C7F30017B3
:1003A0009F4047EA08074760D1F804806FEA0807D2
:1003B000BF0706D1C76AA743C8F3C0049C403C43AB
:1003C000C462C468AC438D68B5402543C5604C68C1
:1003D000E4005ED5344C256E45F001052566246E9B
:1003E00023F0030504F001040094304C2E19B46886
:1003F0009D072F0F09FA07F5AC43B0F1904F05D0D8
:100400002B4DA84204D101251CE042E0002519E053
:10041000284DA84201D1022514E0274DA84201D160
:1004200003250FE0254DA84201D104250AE0244D03
:10043000A84201D1052505E0224DA84201D106259B
:1004400000E00725BD402543B560DBF800405D4670
:100450004E689443F60300D514432C60DEF8004048
:1004600075464E689443B60300D514432C600D4D79
:1004700008352C684E689443F60200D514432C606E
:10048000084D0C352C684E689443B60200D51443D1
:100490002C605B1C0A6832FA03F57FF441AF00F070
:1004A00013B80000000401400010024000000140A9
:1004B0000004004800080048000C004800100048F4
:1004C000001400480018004818BCBDE8E08F0AB1CD
:1004D0008161704781627047014800687047000081
:1004E0001C00002002480168491C016070470000A0
:1004F0001C00002010B50024032000F065F8002047
:1005000000F008F808B1012401E000F01BF82046D3
:1005100010BD000070B5054609484FF47A710024FB
:100520000068B0FBF1F000F0AFFD08B1012404E079
:1005300000222946501E00F027F8204670BD00001A
:1005400020000020094808B5016E41F00101016654
:10055000016E01F001010091816D41F080518165D2
:10056000806D00F08050009008BD00000010024037
:1005700000F01F02012191404009800000F1E020BD
:10058000C0F8001170470000F0B40E4B1B680C4619
:10059000C3F30223C3F10705042D00D90425191D57
:1005A000072901D2002300E0DB1E012606FA05F12F
:1005B000491E214099409E40761E16403143F0BCB2
:1005C00001F0B2BA0CED00E0064900F0070208683D
:1005D0004FF6FF03184040EA0220034A1043086028
:1005E000704700000CED00E00000FA051649B0F578
:1005F000007F0868C0F3412009D0022805D00868B0
:1006000020F4C06040F4806008600020704701283A
:10061000FBD0086820F4C06040F4007008600B480C
:100620003222006850430A4AB0FBF2F0401C00E05E
:10063000401E4A69520501D50028F9D14869400594
:10064000E3D5032070470000007000402000002028
:1006500040420F000248006800F4C060704700008C
:10066000007000402DE9F84F044600270088E54D52
:100670003E46010504F1200B1DD5606E78B1B0F542
:10068000800F11D0B0F5000F04D0B0F5400F22D08C
:1006900001270FE0E86840F48030E8601BE00021AB
:1006A000201D01F053FA03E00021584601F0E4FA5E
:1006B000070010D03E462088C00426D5A06EC0B1E9
:1006C000B0F1807F1AD0B0F1007F0DD0B0F1407F43
:1006D00019D0012718E0D5F88800616E20F4400099
:1006E0000843C5F88800E6E7E86840F48030E86031
:1006F00009E00021201D01F029FA03E000215846FD
:1007000001F0BAFA0746F7B13E46206880033AD5B1
:10071000A86D4FF00008C00009D4A86D40F08050CB
:10072000A865A86D4FF0010800F080500090DFF838
:10073000D8A2DAF8001041F48071CAF80010FFF76F
:10074000CBFE814610E0D5F88800A16E20F0407005
:100750000843C5F88800D8E7FFF7BEFEA0EB090004
:10076000022801D9032705E0DAF80000C005F3D517
:10077000002F7CD04FEA0706B8F1000F03D0A86D18
:1007800020F08050A8652078C00707D0D5F88800F1
:10079000A16B20F003000843C5F88800207880078B
:1007A00007D5D5F88800E16B20F00C000843C5F8A8
:1007B00088002078400707D5D5F88800216C20F004
:1007C00030000843C5F888002078000707D5D5F821
:1007D0008800616C20F0C0000843C5F888002078CC
:1007E000C00607D5D5F88800A16C20F440700843F6
:1007F000C5F888002078800607D5D5F88800E16C18
:1008000020F440600843C5F888002088800507D59B
:10081000D5F88800E16D20F440200843C5F8880031
:100820002088400507D5D5F88800216E20F44010B7
:100830000843C5F888002078400607D5D5F8880019
:10084000216D20F440500843C5F888002078000648
:1008500007D5D5F88800616D20F440400843C5F8FD
:1008600088002088C00509D5D5F8880000E01CE084
:10087000A16D20F440300843C5F8880020884FF06F
:10088000006780044FF080684FD5D5F88800E16E8E
:1008900020F040600843C5F88800E06EB8423CD1C3
:1008A000E86840F48010E8603FE0D5F8900010F46C
:1008B000407015D0D4F88410814211D0D5F8900042
:1008C000D5F8901020F4407041F48031C5F89010B4
:1008D000D5F8901021F48031C5F89010C5F890003B
:1008E000C00710D0FFF7F8FD074641F2883906E04F
:1008F000FFF7F2FDC11B494501D903263CE7D5F8B6
:1009000090008007F4D5D5F89000D4F8841020F436
:1009100040700843C5F890002EE7404505D10121FD
:10092000201D01F013F900B106462068000317D519
:10093000D5F88800216F20F040600843C5F8880092
:10094000206FB84204D1E86840F48010E86007E006
:10095000404505D10121201D01F0F8F800B10646FF
:100960002068400317D5D5F88800616F20F04060FB
:100970000843C5F88800606FB84204D1E86840F4C5
:100980008010E86007E0404505D10121201D01F0FD
:10099000DDF800B10646208840041AD5D5F8880055
:1009A000A16F20F040500843C5F88800A06FB0F157
:1009B000805F03D0B0F1005F05D00AE00221201D66
:1009C00001F0C4F803E00221584601F055F900B1E6
:1009D00006462088000407D5D5F88800E16F20F08E
:1009E00080400843C5F888002068C00307D555F843
:1009F000880FD4F8801020F000400843286030466B
:100A000000F004B8001002400070004018BCBDE8BF
:100A1000E08F00002DE9F0470F46050058D03F4E0B
:100A2000306800F00700B84209D2306820F00700B3
:100A300038433060306800F00700B84248D1287869
:100A4000374CC0072CD06868032811D0022812D078
:100A5000216898B1490500293ADAA16821F003011B
:100A60000143A160FFF738FD804641F2883910E06C
:100A700021688901EFE721688903ECE78907EAE744
:100A8000FFF72AFDA0EB0801494502D90320BDE884
:100A9000F087A068696800F00C00B0EB810FEFD11F
:100AA0002878800705D5A068A96820F0F0000843E1
:100AB000A060306800F00700B8420BD9306820F021
:100AC000070038433060306800F00700B84201D0BA
:100AD0000120DCE72878400705D5A068E96820F404
:100AE000E0600843A0602878000706D5A06829695F
:100AF00020F4605040EAC100A06000F041F8A16815
:100B0000084AC1F30311515C01F01F01C8400649B6
:100B10000860BDE8F0470020FFF7FCBC0020024061
:100B200000100240602700082000002001480068F3
:100B300070470000200000200548064900688968C9
:100B4000054AC1F30221515C01F01F01C840704702
:100B50002000002000100240A02700080548064998
:100B600000688968054AC1F3C221515C01F01F0188
:100B7000C84070472000002000100240A027000855
:100B800070B52549002318468A68CC6812F00C021B
:100B900004F00306214C4FEA640509D00C2A05D065
:100BA000042A26D0082A00D1284670BD012E10D173
:100BB0000B681B0704D4D1F89430C3F3032302E07D
:100BC0000B68C3F30313164E56F823307AB10C2A80
:100BD000EBD1C86800F00302C868C0F30210401CE3
:100BE000022A08D0032A09D0B3FBF0F008E0184627
:100BF00070BD204670BDB4FBF0F001E0B5FBF0F035
:100C0000CA68C968C2F306225043C1F34161491C56
:100C10004900B0FBF1F070BD001002400024F40068
:100C2000702700082DE9F84305007CD0FD4CA06832
:100C300000F00C06E06800F003072878C00661D5D4
:100C400076B10C2E01D1012F0AD0A86900282068A6
:100C500078D040F001002060FFF73EFC804659E06C
:100C60002068800702D5A8690028DED0286A21689C
:100C7000090703D5216801F0F00104E0D4F89410CD
:100C8000F02202EA1111884215D901F079F8002802
:100C900049D1206840F0080020602068296A20F0CF
:100CA000F000084320606068E96920F47F4040EA72
:100CB0000120606015E0206840F008002060206896
:100CC000296A20F0F000084320606068E96920F498
:100CD0007F4040EA01206060286A01F051F8002856
:100CE000D6D1FFF74DFFA168CF4AC1F30311515C84
:100CF00001F01F01C840CD4908600020FFF70AFC41
:100D000000287DD12FE000BFFFF7E6FBA0EB080035
:100D1000022876D820688007F6D5206840F00800C1
:100D20002060206801E0BBE00CE0296A20F0F000C0
:100D3000084320606068E96920F47F4040EA0120B0
:100D4000606010E020F001002060FFF7C5FB8046E6
:100D500006E000BFFFF7C0FBA0EB08000228D8D8D0
:100D600020688007F6D42878C00740D0082E18D015
:100D70000C2E01D1032F14D06868B0F5803F17D036
:100D8000B0F5A02F206817D020F4803020602068B4
:100D900020F4802020606868E0B1FFF79DFB80466A
:100DA00014E02068800322D56868002878D01EE00F
:100DB000206840F48030EDE740F480202060F7E7C1
:100DC000FFF78AFBA0EB08006428A2D82068800304
:100DD000F6D50CE0FFF780FB804605E0FFF77CFBD3
:100DE000A0EB0800642894D820688003F6D4287803
:100DF00080073BD5042E11D00C2E04D1022F01E028
:100E000036E1A1E00AD0E868002820681ED040F44E
:100E100080702060FFF760FB07460CE0206840050B
:100E20000CD5E8680028C1D008E000BFFFF754FBEC
:100E3000C01B022893D820684005F7D56068297C3C
:100E400020F0F85040EA016060600FE020F480700C
:100E50002060FFF741FB074605E000BFFFF73CFBC2
:100E6000C01B022870D820684005F7D428780007F6
:100E700029D568690028D4F8940012D040F0010008
:100E8000C4F89400FFF728FB074604E0FFF724FBB3
:100E9000C01B022858D8D4F894008007F6D512E079
:100EA000EDE020F00100C4F89400FFF715FB0746C1
:100EB00005E000BFFFF710FBC01B022844D8D4F8A0
:100EC00094008007F6D42878400768D5A06D0027E5
:100ED000C00008D4A06D40F08050A065A06D01272F
:100EE00000F08050009052480168C90512D4016892
:100EF000814641F480710160FFF7EEFA804605E01B
:100F0000FFF7EAFAA0EB080002281DD8D9F8000084
:100F1000C005F5D5A868012817D00528D4F8900099
:100F200018D020F00100C4F89000D4F8900020F010
:100F3000040000BFC4F89000A86841F28839D0B11D
:100F4000FFF7CAFA804611E06BE0D4F8900040F059
:100F50000100EFE740F00400C4F89000F5E700BF9F
:100F6000FFF7BAFAA0EB080149455AD8D4F8900027
:100F70008007F5D50EE0FFF7AFFA804606E000BF28
:100F8000FFF7AAFAA0EB0801494570D8D4F8900001
:100F90008007F5D41FB1A06D20F08050A065A86A2D
:100FA000F0B30C2E6BD00228206820F080702060F7
:100FB00004D0206810F0205F47D04AE0FFF78CFA99
:100FC000064604E0FFF788FA801B02284FD8206805
:100FD0008001F7D4286BE96A000110380843696B77
:100FE000AA6B0902120941EA42410843A98F114A3A
:100FF000490802EB4151084395F840104908120195
:1010000002EB41610843E060206840F0807020609E
:10101000E06840F08070E060FFF75EFA054610E09F
:101020002BE024E000100240602700082000002090
:10103000007000400000E0FFFFF74EFA401B02285E
:1010400015D820688001F7D517E0E06820F003008C
:10105000E060E0680B490840E060FFF73DFA0546B4
:1010600008E000BFFFF738FA401B022802D903202E
:10107000BDE8F88320688001F4D40020F8E701205F
:10108000F6E70000FFFFEEFE10B5401EB0F1807FD6
:1010900001D3012010BD4FF0E02460610F216017E3
:1010A00000F042FD0020A06107202061002010BD5B
:1010B000704770477047000070B590F83C20012AD7
:1010C00024D0012480F83C40022280F83D200268B0
:1010D000536895680E4EB24202D00E4EB24203D112
:1010E00023F470064B68334323F070060B6889685D
:1010F000334325F08005294353600268916080F8EE
:101100003D40002180F83C10084670BD022070BDB3
:10111000002C01400034014010B5040003D094F8C5
:101120003D0010B107E0012010BD002084F83C0014
:10113000204600F00DF8022084F83D00211D2068B3
:1011400000F0BEFE012084F83D00002010BD00002C
:1011500010B586B0044614216846FFF76CF8204AA3
:1011600021682048914225D1016E41F40061016659
:10117000016E01F400610591C16C41F00101C1648F
:10118000C06C694600F0010005904FF4706000905B
:1011900002200190002002900390012004904FF063
:1011A0009040FFF7AFF8002211461B20FFF7ECF943
:1011B0001B2010E00C4A91420FD1816D41F01001CB
:1011C0008165806D002200F01000059011463620E8
:1011D000FFF7DAF93620FFF7CBF906B010BD0000B3
:1011E000002C0140001002400010004070B5044681
:1011F00090F83C00012817D0012584F83C500220CB
:1012000084F83D0020688268324E324022F47F42EA
:1012100082600868502839D00DDC202855D005DCC4
:1012200098B3102843D150E0022070BD30284CD034
:1012300040283CD141E0602830D070280CD0B0F577
:10124000805F03D0B0F5005F31D112E02068816883
:10125000204A7032114016E0CB68D1E901212068A4
:1012600000F09BFE21688868304040F0770088607D
:101270001DE0CB68D1E90121206800F08EFE2068D6
:10128000816841F48041816011E01EE0CA684968CC
:10129000206800F0D5FE5021206806E0CA68496841
:1012A000206800F01BFF6021206800F080FE84F8B9
:1012B0003D50002084F83C0070BDCA684968206831
:1012C00000F0BEFE40212068EFE72268014610468C
:1012D000EBE7000088FFFEFF2DE9F0410646007FA6
:1012E000012855D100212B4800F01CFA2A4C2082FD
:1012F000FFF734FC274F3A68916A04F11805491C3E
:10130000B0FBF1F080B26082218AB0FBF1F0A082E4
:1013100069882888814201D3081A02E0D26A101A2B
:101320000844A081FFF708FC3968896A491CB0FBB2
:10133000F1F080B200EE100AA0890021F8EE400A18
:1013400000EE100AB8EE400A80EE801ABCEEC10A28
:1013500010EE100A6081304600F0E4F92880042184
:10136000304600F0DFF90D4980B268800968E181FC
:10137000298851B164225043B0FBF1F02081FFF77E
:10138000D5FB2988B0FBF1F001E0002020816081CD
:10139000BDE8F0812400002000000020342C014032
:1013A0002DE9F041044690F83C000D4601283DD05F
:1013B000012684F83C60022084F83D00AAB3042A88
:1013C00046D02068082A55D0D5E90027E968036A85
:1013D00023F480530362D0F81CC0036A2CF4407CD1
:1013E0004CEA07274FF6FF7C27F470470CEA0131DF
:1013F00039434FF4204723F4204307EA02321A43CB
:10140000C16102622068C16921F44061C161206844
:10141000C169AA6841EA0221C0F81C1084F83D6045
:10142000002084F83C00BDE8F08101E00220FAE7EA
:10143000D5E90012EB68206800F014FE206881698D
:1014400021F00C01816120688169AA6811430FE0D5
:10145000D5E90012EB68206800F052FE206881692F
:1014600021F44061816120688169AA6841EA022112
:101470008161D3E7D5E9002C2F7B016A21F48071CB
:101480000162C169036A21F0030141EA0C0121F004
:10149000F00C39074FF420674CEA116123F4206304
:1014A00007EA02221A43C16102622068C16921F081
:1014B0000C01C1612068C169AA681143ACE710B58D
:1014C000040003D094F83D0010B107E0012010BDE6
:1014D000002084F83C00204600F00CF8022084F83C
:1014E0003D00211D206800F0EBFC012084F83D0048
:1014F000002010BD7047000010B50268044631B1ED
:10150000042908D008291FD00C2908D120E0D06870
:1015100040F0020002E0D06840F00400D0600122F8
:10152000206800F02DFD206882680B490A40062AD9
:1015300008D082680A40B2F5803F03D0016841F0CC
:1015400001010160002010BDD06840F00800E5E70F
:10155000D06840F01000E1E70700010070B50446D4
:10156000006801694FF00005C943890715D4C168B7
:10157000C943890711D4E91E016101202077206841
:1015800080698007204602D0FFF7A6FE04E000F045
:10159000A7F8204600F0A5F8257720680169C9431F
:1015A000490717D4C168C943490713D46FF0040130
:1015B0000161022020772068806910F4407F204676
:1015C00002D0FFF789FE04E000F08AF8204600F020
:1015D00088F8257720680169C943090716D4C168CE
:1015E000C943090712D46FF0080101610420207774
:1015F0002068C0698007204602D0FFF76DFE04E036
:1016000000F06EF8204600F06CF82577206801693C
:10161000C943C90617D4C168C943C90613D46FF0BA
:1016200010010161082020772068C06910F4407F14
:10163000204602D0FFF750FE04E000F051F82046AB
:1016400000F04FF8257720680169C943C90708D120
:10165000C168C943C90704D1891E0161204600F051
:1016600041F820680169C943090609D4C168C94322
:10167000090605D46FF0800101612046FFF719FDCE
:1016800020680169C943C90509D4C168C94309066D
:1016900005D46FF4807101612046FFF709FD2068D1
:1016A0000169C943490609D4C168C943490605D43B
:1016B0006FF040010161204600F077F82068016971
:1016C000C94389060BD4C168C943890607D46FF0A2
:1016D000200101612046BDE87040FFF7EBBC70BD02
:1016E000704770470D490A79521C0A7100680C4A0C
:1016F000904211D1C87800280ED04A794008521C77
:101700004A71C870C1074FF0904001D0012200E03B
:1017100000222021FEF7DBBE704700000000002001
:101720000010004090F83C300022012B0AD0012329
:1017300080F83C3041B1042909D008290AD00C298D
:101740000DD10AE00220704701684A6B07E001688A
:101750008A6B04E00168CA6B01E001680A6C002131
:1017600080F83C101046704770B5044690F83C0075
:10177000012818D0012584F83C50022084F83D004F
:10178000204600F01DFC2068C16821F04001C160C6
:101790002068C16821F48041C16084F83D50002078
:1017A00084F83C0070BD022070BD704770477047E0
:1017B0002DE9F04102680446D0691168936810F081
:1017C0000F0F4FF000055BD003F0010601F4907796
:1017D000374369D0C70707D0CF0505D50127176262
:1017E000626F42F001026267820708D5DA0706D00D
:1017F000276802223A62626F42F00402626742077F
:1018000008D5DA0706D0236804221A62626F42F014
:101810000202626702070AD501F02002324306D0B5
:10182000236808221A62626F42F008026267626FE0
:10183000002A32D0800605D5880603D5216E09B16D
:1018400020468847606F000703D420688068400600
:1018500025D5204600F012FD20688168490619D57B
:10186000816821F040018160E06E98B12049816378
:10187000E06EFEF71FFD00280FD0E06E816B06E0E2
:10188000860611D58E060FD5216E1EE02046BDE8D6
:10189000F04108472046FFF78AFFBDE8F081204667
:1018A000FFF785FF6567F8E7C60209D55B0207D534
:1018B0004FF4801010622046BDE8F041FFF776BF7C
:1018C000030605D50B0603D5616E0029DED1E4E7DA
:1018D0004006E2D54806E0D51168204621F04001D7
:1018E0001160202184F87110656600F0A5F8D4E736
:1018F0006922000810B5040003D094F8710010B1FB
:1019000007E0012010BD002084F87000204600F0A0
:1019100027F8242084F871002068016821F0010173
:101920000160204600F0BAFC0128EBD0606A10B1DB
:10193000204600F007FC2068416821F49041416096
:101940002068816821F02A0181602068016841F0E7
:10195000010101602046BDE8104000F057BC0000C6
:1019600010B586B0044614216846FEF764FC16499B
:101970002068884226D11548816D41F40021816597
:10198000816D01F400210591C16C41F00101C16438
:10199000C06C022100F0010005900320CDE9000198
:1019A0000021CDE902100820049069464FF09040D4
:1019B000FEF7A8FC002211463420FEF7E5FD342096
:1019C000FEF7D6FD06B010BD004C004000100240EE
:1019D00090F87130202B29D1B9B1B2B190F87030A4
:1019E000012B23D0012380F87030C164A0F850206F
:1019F000A0F85220002141664167212280F8712021
:101A00008268B2F5805F02D003E00120704702696E
:101A100052B1074A426680F870100068016841F0D0
:101A20008001016000207047024AF3E702207047FE
:101A30007F2500083D2500087047FEE730B591B0CE
:101A400000240C940D940E94142104A80F94FEF716
:101A5000F2FB28480A940B94099400940194029490
:101A6000234901250394C0E900154FF6FF71C0E931
:101A70000241046144618461FFF74EFB28030C902E
:101A80000CA91C48FFF7B2FB1A48FFF718FD042009
:101A900004905020CDE9050404A916480894FFF7E6
:101AA00063FE202009900004CDE90A0409A9114829
:101AB000FFF702FBCDE900450294002269460D487C
:101AC0000394FFF76DFC022504226946094800953E
:101AD000FFF766FC0822694606480094FFF760FCA1
:101AE0000C22694603480095FFF75AFC11B030BD3F
:101AF000002C0140240000200948084901604FF4EF
:101B000016514160002181600C22C160C0E90412BD
:101B10008161C16101624162FFF7ECBE004C00408F
:101B2000A4000020FEE770470907090E002806DA26
:101B300000F00F0000F1E02080F8141D704700F164
:101B4000E02080F800147047704700002DE9F04154
:101B5000444C05468846E0680026810728680DD079
:101B6000E16801F00301814216D1A8B1E06869681B
:101B7000C0F30210401C88420ED120E0012804D09E
:101B8000022805D0032807D108E02168890701E071
:101B900021684905002907DB01265FE021688903E8
:101BA00002D421684903F5E7E1686A686FF00F0322
:101BB00021F0730103EB021211430143E16020683D
:101BC00020F080602060FEF787FC074605E000BF3C
:101BD000FEF782FCC01B022837D820680001F7D42A
:101BE000B8F1000F18D0B8F1010F1ED0287D4FF0CA
:101BF0007E41400801EB4060A96840EA012021696C
:101C0000194A114008432061206840F0806020603C
:101C1000FEF762FC07461AE0A868E96800020909B5
:101C200040EA41402169114AEBE7288A10494008FF
:101C300001EB4050A96840EA012021690D4AE0E724
:101C4000FEF74AFCC01B022801D9032606E02068E3
:101C50000001F5D52069A969084320613046BDE837
:101C6000F081000000100240FF80FFF9FF80FDFFBF
:101C70000000E0FFFF809FFF2DE9F0413D4C06464C
:101C80008846E0680025810730680DD0E16801F0E2
:101C90000301814216D1A8B1E0687168C0F3021057
:101CA000401C88420ED120E0012804D0022805D033
:101CB000032807D108E02168890701E02168490568
:101CC000002907DB012551E02168890302D421683E
:101CD0004903F5E7E16872686FF00F0321F07301C3
:101CE00003EB021211430143E160206820F08050B1
:101CF0002060FEF7F1FB074605E000BFFEF7ECFBB6
:101D0000C01B022829D820688000F7D4B8F1000F42
:101D100015D0307C4FF07E41400801EB4060B16847
:101D200040EA01206169144A11400843606120685B
:101D300040F080502060FEF7CFFB07460FE0B06810
:101D4000F1680002090940EA414061690B4AEBE78A
:101D5000FEF7C2FBC01B022801D9032506E020685C
:101D60008000F5D560697169084360612846BDE867
:101D7000F081000000100240FF80FFF9FF80FDFFAE
:101D8000F8B51C4D06460024A86DC00002D5FEF72C
:101D900061FC0DE0A86D40F08050A865A86D00F0D2
:101DA00080500090FEF756FCA96D21F08051A96586
:101DB000B0F5007F04D0802E07D94FF003040AE06D
:101DC000802E08D9A02E01D804E001D1022402E01F
:101DD000702E00D101240848016821F00701214339
:101DE0000160006800F00700A04201D00120F8BDAA
:101DF0000020F8BD00100240002002407047FEF7AE
:101E000071BB10B5B8B0442122A8FEF714FA142112
:101E100033A8FEF710FA88216846FEF70CFA102066
:101E2000229000240120CDE9280460202A902C94DF
:101E300022A8FEF7F7FE0F20CDE93304359436943F
:101E4000002133A83794FEF7E5FD08200090119497
:101E50006846FEF707FC4FF40070FEF7C7FB38B08A
:101E600010BD00000D48016841F4700101600C488C
:101E7000016841F001010160002181600268094BA5
:101E80001A4002608214C260026822F4802202605A
:101E900081610249C00380390860704788ED00E025
:101EA00000100240FFFFF6EA0148FFF757BB0000B1
:101EB000240000200148FFF751BB0000640000200F
:101EC0002DE9F0470268264B264D274E274F284C18
:101ED0004FF0804A984209D0504507D0A84205D01B
:101EE000B04203D0B84201D0A04204D122F0700C1D
:101EF0004A6842EA0C02DFF87CC0DFF87C80DFF839
:101F00007C9098420FD050450DD0A8420BD0B042E3
:101F100009D0B84207D0A04205D0604503D0404563
:101F200001D0484503D122F44075CA682A434D695F
:101F300022F080022A4302608A68C2620A688262D2
:101F4000984207D0A04205D0604503D0404501D05B
:101F5000484501D10969016301214161BDE8F0876C
:101F6000002C01400004004000080040000C00402C
:101F7000003401400040014000440140004801405D
:101F800010B501F01F030121046A99408C430462DB
:101F9000016A9A401143016210BD10B5846842EA9B
:101FA000032224F47F440A432243826010BD8268E6
:101FB00022F070020A4342F007018160704700007E
:101FC00030B40468A26822F070034A681A431B4BBD
:101FD0001A400B681343A3604A6812F00F0F1FD119
:101FE0001211082A1CD2DFE802F01B1B1B1B0B1D61
:101FF00023040B69D1E90221006830BCFFF7CDBF93
:102000000268136A146A24F0010414620268946975
:10201000096924F0F00444EA011191610068036247
:1020200030BC70470A698968006830BC00F008B8A5
:102030000A698968006830BC00F050B8F8FFFEFFFC
:1020400010B5036A046A24F001040462846924F070
:10205000F00444EA021423F00A020A438461026293
:1020600010BD000070B5046A24F0010404628469A4
:10207000056A144EB04211D0B0F1804F0ED0124E0E
:10208000B0420BD0114EB04208D0114EB04205D034
:10209000104EB04202D0104EB04203D124F00304DF
:1020A000144301E044F001041A0724F0F00444EA68
:1020B000126225F00A0301F00A01194382610162EC
:1020C00070BD0000002C01400004004000080040EA
:1020D000000C0040003401400040014010B5036A8C
:1020E00023F0100303628369046A23F4704343EA14
:1020F000023224F0A00343EA01118261016210BDA3
:1021000030B5046A24F0100404628469056A24F47A
:10211000407444EA022222F470444FF6FF7202EA4D
:1021200003322243A02425F0A00304EA011119433D
:102130008261016230BD00000148FFF739BB000039
:10214000A400002090F82410C90706D001684A684E
:10215000836A22F400321A434A6090F824108907F7
:1021600006D501684A68C36A22F480321A434A607D
:1021700090F82410490706D501684A68036B22F4D9
:1021800080221A434A6090F82410090706D5016896
:102190004A68436B22F400421A434A6090F82410C4
:1021A000C90606D501688A68836B22F480521A43F7
:1021B0008A6090F82410890606D501688A68C36B86
:1021C00022F400521A438A6090F82410490611D56F
:1021D00001684A68036C22F480121A434A60016C59
:1021E000B1F5801F06D101684A68436C22F4C00231
:1021F0001A434A6090F82410090606D501684A6817
:10220000806C22F4002202434A607047F8B5002631
:1022100004464667FEF760F90546206800686FF0DF
:102220007E47000708D52B4600224FF400112046B8
:10223000009700F0C2F960B92068006840070AD52D
:102240002B4600224FF480012046009700F0B5F99C
:1022500008B10320F8BD202084F8710084F87200D2
:1022600084F870600020F8BD10B5806A0021A0F8E5
:102270005A10A0F85210FFF79AFA10BD01680A68C8
:1022800022F490720A6001688A6822F001028A6072
:10229000202180F872100021016670472DE9F0417D
:1022A0000446016880682369E6691843636910255C
:1022B000002733431843954A0B68954E3340034338
:1022C0000B6020684168E36821F440511943416084
:1022D0002168A069914201D0236A18438B6823F4D6
:1022E000306303438B608B4B21688B4899420DD13F
:1022F000D0F8880010F0030006D001285AD0022838
:1023000056D0032859D157E0012556E0834B994216
:102310000BD1D0F8880010F00C0047D0042849D029
:10232000082845D00C2848D146E07D4B99420BD176
:10233000D0F8880010F0300038D010283AD020288B
:1023400036D0302839D137E0764B99420BD1D0F8CE
:10235000880010F0C00029D040282BD0802827D03A
:10236000C0282AD128E0704B99420ED1D0F88800BD
:1023700010F440701AD0B0F5807F1BD0B0F5007F0C
:1023800016D0B0F5407F18D116E0914215D1D0F8A3
:10239000880010F4406009D0B0F5806F0AD0B0F525
:1023A000006F05D0B0F5406F07D105E0002504E0CF
:1023B000022502E0042500E008255C4B00264FF4CE
:1023C000004091423DD135B1022D07D0042D07D0F8
:1023D000082D10D107E0FEF7AFFB03E0184602E03E
:1023E000FEF7CEFBA8B3626802EB4201814202D83D
:1023F000B0EB023F01D9012775E0DFF834815DB110
:10240000022D0CD0042D13D0082DF4D1500829052D
:10241000401846F1000105E0FEF78EFB0AE0500887
:102420004449F5E70023FDF7CBFEA0F5407156E0E7
:10243000FEF7A6FB6268010E0302500818187141EE
:10244000F0E7E1694FF6EF7881422FD1092DD2D222
:1024500000E048E0DFE805F0060920052305050552
:102460002600C8E7FEF768FB01E0FEF777FB4100B6
:10247000D4F8040001EB5001B1FBF0F080B2A0F100
:1024800010014145B7D84FF6F0710140C0F342004A
:1024900001432068C16026E027496068EAE7FEF74B
:1024A0006FFBE4E74FF480316068E3E7092DA2D2C7
:1024B000DFE805F006091E052205050525009AE757
:1024C000FEF73AFB01E0FEF749FB0146606801EBCD
:1024D000500100BFB1FBF0F080B2A0F11001414506
:1024E00089D82168C860266638466666BDE8F081EE
:1024F000606803EB5001EDE7FEF742FBE5E761683A
:1025000000EB5100B0FBF1F0E6E700000080004076
:10251000F369FFEF00380140001002400044004022
:1025200000480040004C0040005000400024F400EF
:10253000FFFC0F00000024F40048E80190F871103F
:10254000212910D1B0F8521071B1C16C026809880C
:10255000C1F308011185C16C891CC164B0F8521027
:10256000491EA0F85210704701680A6822F08002E4
:102570000A600068016841F040010160704790F80E
:10258000711021290DD1B0F8521059B1C16C4A1CFB
:10259000C264026809781185B0F85210491EA0F88B
:1025A0005210704701680A6822F080020A600068D1
:1025B000016841F04001016070472DE9F041984603
:1025C00017460E460446069D1DE0681C1BD02DB123
:1025D000FDF782FFA0EB0800A84214D9206801682B
:1025E00021F4D07101602068816821F001018160CF
:1025F000202084F8710084F87200002084F87000B4
:102600000320BDE8F0812068C06936EA000004D0EC
:102610000020B842D9D00020F3E70120F9E70000FC
:1026200070B51149002388700B70881D0A78835497
:102630004B70845CA40884548D78EE0702D044F07B
:10264000400401E044F0800484546C088C704C78A1
:102650001646641CE4B24C70042CEAD3721CD2B24D
:102660000A70022AE2D370BD00000020FEE702E0FB
:1026700008C8121F08C1002AFAD17047704700200D
:1026800001E001C1121F002AFBD1704786B0FDF79F
:1026900031FFFFF7B6FB14216846FDF7CCFD2C484F
:1026A000C16C41F08001C164C16C01F080010591F1
:1026B000C16C41F00101C164C06C002400F0010054
:1026C00005904020CDE9000469464FF09040029407
:1026D000FDF718FEFFF710FA1F48009401941D49FA
:1026E000029401600721C0E9011433218461C160B3
:1026F000FEF712FD0094694617480294FEF7DCFCD1
:10270000FFF79CF9144800214038FEF7F5FE124807
:1027100004214038FEF7F0FE0F4808214038FEF74C
:10272000EBFE0D480C214038FEF7E6FE0B4C2089ED
:10273000FFF776FF2089FFF773FF0849064802225A
:10274000891D4030FFF744F92089E082F2E700005C
:102750000010024000100040640000200000002033
:102760000000000000000000010203040607080941
:10277000A0860100400D0300801A060000350C0001
:1027800040420F0080841E0000093D0000127A00C4
:102790000024F40000366E010048E801006CDC0201
:1027A0000000000001020304C82700080000002008
:1027B000240000006E260008EC27000824000020FA
:1027C000FC0400007E26000800000000000000005D
:1027D00000000000000000000000000000000000F9
:0C27E000000000000000000000093D00A7
:040000050800018965
:00000001FF
